{
  "address": "0x5FbDB2315678afecb367f032d93F642f64180aa3",
  "abi": [
    {
      "inputs": [],
      "stateMutability": "nonpayable",
      "type": "constructor"
    },
    {
      "anonymous": false,
      "inputs": [
        {
          "indexed": true,
          "internalType": "address",
          "name": "owner",
          "type": "address"
        },
        {
          "indexed": true,
          "internalType": "address",
          "name": "approved",
          "type": "address"
        },
        {
          "indexed": true,
          "internalType": "uint256",
          "name": "tokenId",
          "type": "uint256"
        }
      ],
      "name": "Approval",
      "type": "event"
    },
    {
      "anonymous": false,
      "inputs": [
        {
          "indexed": true,
          "internalType": "address",
          "name": "owner",
          "type": "address"
        },
        {
          "indexed": true,
          "internalType": "address",
          "name": "operator",
          "type": "address"
        },
        {
          "indexed": false,
          "internalType": "bool",
          "name": "approved",
          "type": "bool"
        }
      ],
      "name": "ApprovalForAll",
      "type": "event"
    },
    {
      "anonymous": false,
      "inputs": [
        {
          "indexed": true,
          "internalType": "address",
          "name": "from",
          "type": "address"
        },
        {
          "indexed": true,
          "internalType": "address",
          "name": "to",
          "type": "address"
        },
        {
          "indexed": true,
          "internalType": "uint256",
          "name": "tokenId",
          "type": "uint256"
        }
      ],
      "name": "Transfer",
      "type": "event"
    },
    {
      "inputs": [],
      "name": "__name",
      "outputs": [
        {
          "internalType": "string",
          "name": "",
          "type": "string"
        }
      ],
      "stateMutability": "view",
      "type": "function"
    },
    {
      "inputs": [],
      "name": "__symbol",
      "outputs": [
        {
          "internalType": "string",
          "name": "",
          "type": "string"
        }
      ],
      "stateMutability": "view",
      "type": "function"
    },
    {
      "inputs": [
        {
          "internalType": "address",
          "name": "to",
          "type": "address"
        },
        {
          "internalType": "uint256",
          "name": "tokenId",
          "type": "uint256"
        }
      ],
      "name": "approve",
      "outputs": [],
      "stateMutability": "nonpayable",
      "type": "function"
    },
    {
      "inputs": [
        {
          "internalType": "address",
          "name": "owner",
          "type": "address"
        }
      ],
      "name": "balanceOf",
      "outputs": [
        {
          "internalType": "uint256",
          "name": "",
          "type": "uint256"
        }
      ],
      "stateMutability": "view",
      "type": "function"
    },
    {
      "inputs": [
        {
          "internalType": "uint256",
          "name": "tokenId",
          "type": "uint256"
        }
      ],
      "name": "getApproved",
      "outputs": [
        {
          "internalType": "address",
          "name": "",
          "type": "address"
        }
      ],
      "stateMutability": "view",
      "type": "function"
    },
    {
      "inputs": [
        {
          "internalType": "string",
          "name": "_name",
          "type": "string"
        },
        {
          "internalType": "string",
          "name": "_symbol",
          "type": "string"
        }
      ],
      "name": "getNameAndSymbol",
      "outputs": [],
      "stateMutability": "nonpayable",
      "type": "function"
    },
    {
      "inputs": [
        {
          "internalType": "address",
          "name": "owner",
          "type": "address"
        },
        {
          "internalType": "address",
          "name": "operator",
          "type": "address"
        }
      ],
      "name": "isApprovedForAll",
      "outputs": [
        {
          "internalType": "bool",
          "name": "",
          "type": "bool"
        }
      ],
      "stateMutability": "view",
      "type": "function"
    },
    {
      "inputs": [
        {
          "internalType": "address",
          "name": "to",
          "type": "address"
        }
      ],
      "name": "mintNft",
      "outputs": [
        {
          "internalType": "uint256",
          "name": "",
          "type": "uint256"
        }
      ],
      "stateMutability": "nonpayable",
      "type": "function"
    },
    {
      "inputs": [],
      "name": "name",
      "outputs": [
        {
          "internalType": "string",
          "name": "",
          "type": "string"
        }
      ],
      "stateMutability": "view",
      "type": "function"
    },
    {
      "inputs": [
        {
          "internalType": "uint256",
          "name": "tokenId",
          "type": "uint256"
        }
      ],
      "name": "ownerOf",
      "outputs": [
        {
          "internalType": "address",
          "name": "",
          "type": "address"
        }
      ],
      "stateMutability": "view",
      "type": "function"
    },
    {
      "inputs": [],
      "name": "returnNameAndSymbol",
      "outputs": [
        {
          "internalType": "string",
          "name": "",
          "type": "string"
        },
        {
          "internalType": "string",
          "name": "",
          "type": "string"
        }
      ],
      "stateMutability": "view",
      "type": "function"
    },
    {
      "inputs": [],
      "name": "returnTokenURI",
      "outputs": [
        {
          "internalType": "string",
          "name": "",
          "type": "string"
        }
      ],
      "stateMutability": "nonpayable",
      "type": "function"
    },
    {
      "inputs": [
        {
          "internalType": "address",
          "name": "from",
          "type": "address"
        },
        {
          "internalType": "address",
          "name": "to",
          "type": "address"
        },
        {
          "internalType": "uint256",
          "name": "tokenId",
          "type": "uint256"
        }
      ],
      "name": "safeTransferFrom",
      "outputs": [],
      "stateMutability": "nonpayable",
      "type": "function"
    },
    {
      "inputs": [
        {
          "internalType": "address",
          "name": "from",
          "type": "address"
        },
        {
          "internalType": "address",
          "name": "to",
          "type": "address"
        },
        {
          "internalType": "uint256",
          "name": "tokenId",
          "type": "uint256"
        },
        {
          "internalType": "bytes",
          "name": "data",
          "type": "bytes"
        }
      ],
      "name": "safeTransferFrom",
      "outputs": [],
      "stateMutability": "nonpayable",
      "type": "function"
    },
    {
      "inputs": [
        {
          "internalType": "address",
          "name": "operator",
          "type": "address"
        },
        {
          "internalType": "bool",
          "name": "approved",
          "type": "bool"
        }
      ],
      "name": "setApprovalForAll",
      "outputs": [],
      "stateMutability": "nonpayable",
      "type": "function"
    },
    {
      "inputs": [
        {
          "internalType": "bytes4",
          "name": "interfaceId",
          "type": "bytes4"
        }
      ],
      "name": "supportsInterface",
      "outputs": [
        {
          "internalType": "bool",
          "name": "",
          "type": "bool"
        }
      ],
      "stateMutability": "view",
      "type": "function"
    },
    {
      "inputs": [],
      "name": "symbol",
      "outputs": [
        {
          "internalType": "string",
          "name": "",
          "type": "string"
        }
      ],
      "stateMutability": "view",
      "type": "function"
    },
    {
      "inputs": [
        {
          "internalType": "uint256",
          "name": "tokenId",
          "type": "uint256"
        }
      ],
      "name": "tokenURI",
      "outputs": [
        {
          "internalType": "string",
          "name": "",
          "type": "string"
        }
      ],
      "stateMutability": "view",
      "type": "function"
    },
    {
      "inputs": [
        {
          "internalType": "address",
          "name": "from",
          "type": "address"
        },
        {
          "internalType": "address",
          "name": "to",
          "type": "address"
        },
        {
          "internalType": "uint256",
          "name": "tokenId",
          "type": "uint256"
        }
      ],
      "name": "transferFrom",
      "outputs": [],
      "stateMutability": "nonpayable",
      "type": "function"
    }
  ],
  "transactionHash": "0xc2e2b2f0901817066bc49e5b39e1ea9ce56311fe6a4e80183e5610102e88211f",
  "args": [],
  "numDeployments": 1,
  "solcInputHash": "a4cc2154e179fd8203cdece4d625da2e",
  "bytecode": "0x608060405260006008553480156200001657600080fd5b5060068054620000269062000198565b80601f0160208091040260200160405190810160405280929190818152602001828054620000549062000198565b8015620000a55780601f106200007957610100808354040283529160200191620000a5565b820191906000526020600020905b8154815290600101906020018083116200008757829003601f168201915b505050505060078054620000b99062000198565b80601f0160208091040260200160405190810160405280929190818152602001828054620000e79062000198565b8015620001385780601f106200010c5761010080835404028352916020019162000138565b820191906000526020600020905b8154815290600101906020018083116200011a57829003601f168201915b505050505081600090816200014e9190620003e3565b508060019081620001609190620003e3565b505050620004ca565b7f4e487b7100000000000000000000000000000000000000000000000000000000600052602260045260246000fd5b60006002820490506001821680620001b157607f821691505b602082108103620001c757620001c662000169565b5b50919050565b600081519050919050565b7f4e487b7100000000000000000000000000000000000000000000000000000000600052604160045260246000fd5b60008190508160005260206000209050919050565b60006020601f8301049050919050565b600082821b905092915050565b6000600883026200026b7fffffffffffffffffffffffffffffffffffffffffffffffffffffffffffffffff826200022c565b6200027786836200022c565b95508019841693508086168417925050509392505050565b6000819050919050565b6000819050919050565b6000620002c4620002be620002b8846200028f565b62000299565b6200028f565b9050919050565b6000819050919050565b620002e083620002a3565b620002f8620002ef82620002cb565b84845462000239565b825550505050565b600090565b6200030f62000300565b6200031c818484620002d5565b505050565b5b8181101562000344576200033860008262000305565b60018101905062000322565b5050565b601f82111562000393576200035d8162000207565b62000368846200021c565b8101602085101562000378578190505b6200039062000387856200021c565b83018262000321565b50505b505050565b600082821c905092915050565b6000620003b86000198460080262000398565b1980831691505092915050565b6000620003d38383620003a5565b9150826002028217905092915050565b620003ee82620001cd565b67ffffffffffffffff8111156200040a5762000409620001d8565b5b62000416825462000198565b6200042382828562000348565b600060209050601f8311600181146200045b576000841562000446578287015190505b620004528582620003c5565b865550620004c2565b601f1984166200046b8662000207565b60005b8281101562000495578489015182556001820191506020850194506020810190506200046e565b86831015620004b55784890151620004b1601f891682620003a5565b8355505b6001600288020188555050505b505050505050565b612e3a80620004da6000396000f3fe608060405234801561001057600080fd5b50600436106101215760003560e01c80637269ada1116100ad578063a22cb46511610071578063a22cb4651461030b578063b88d4fde14610327578063c87b56dd14610343578063e985e9c514610373578063e9c2e14b146103a357610121565b80637269ada11461027457806382215cb11461029257806387322c66146102b057806394387920146102cf57806395d89b41146102ed57610121565b80631f643a1a116100f45780631f643a1a146101c057806323b872dd146101dc57806342842e0e146101f85780636352211e1461021457806370a082311461024457610121565b806301ffc9a71461012657806306fdde0314610156578063081812fc14610174578063095ea7b3146101a4575b600080fd5b610140600480360381019061013b9190611c89565b6103d3565b60405161014d9190611cd1565b60405180910390f35b61015e6104b5565b60405161016b9190611d7c565b60405180910390f35b61018e60048036038101906101899190611dd4565b610547565b60405161019b9190611e42565b60405180910390f35b6101be60048036038101906101b99190611e89565b61058d565b005b6101da60048036038101906101d59190611ffe565b6106a4565b005b6101f660048036038101906101f19190612076565b6106c8565b005b610212600480360381019061020d9190612076565b610728565b005b61022e60048036038101906102299190611dd4565b610748565b60405161023b9190611e42565b60405180910390f35b61025e600480360381019061025991906120c9565b6107ce565b60405161026b9190612105565b60405180910390f35b61027c610885565b6040516102899190611d7c565b60405180910390f35b61029a610913565b6040516102a79190611d7c565b60405180910390f35b6102b86109a1565b6040516102c6929190612120565b60405180910390f35b6102d7610ac8565b6040516102e49190611d7c565b60405180910390f35b6102f5610b74565b6040516103029190611d7c565b60405180910390f35b61032560048036038101906103209190612183565b610c06565b005b610341600480360381019061033c9190612264565b610c1c565b005b61035d60048036038101906103589190611dd4565b610c7e565b60405161036a9190611d7c565b60405180910390f35b61038d600480360381019061038891906122e7565b610ce6565b60405161039a9190611cd1565b60405180910390f35b6103bd60048036038101906103b891906120c9565b610d7a565b6040516103ca9190612105565b60405180910390f35b60007f80ac58cd000000000000000000000000000000000000000000000000000000007bffffffffffffffffffffffffffffffffffffffffffffffffffffffff1916827bffffffffffffffffffffffffffffffffffffffffffffffffffffffff1916148061049e57507f5b5e139f000000000000000000000000000000000000000000000000000000007bffffffffffffffffffffffffffffffffffffffffffffffffffffffff1916827bffffffffffffffffffffffffffffffffffffffffffffffffffffffff1916145b806104ae57506104ad82610da8565b5b9050919050565b6060600080546104c490612356565b80601f01602080910402602001604051908101604052809291908181526020018280546104f090612356565b801561053d5780601f106105125761010080835404028352916020019161053d565b820191906000526020600020905b81548152906001019060200180831161052057829003601f168201915b5050505050905090565b600061055282610e12565b6004600083815260200190815260200160002060009054906101000a900473ffffffffffffffffffffffffffffffffffffffff169050919050565b600061059882610748565b90508073ffffffffffffffffffffffffffffffffffffffff168373ffffffffffffffffffffffffffffffffffffffff1603610608576040517f08c379a00000000000000000000000000000000000000000000000000000000081526004016105ff906123f9565b60405180910390fd5b8073ffffffffffffffffffffffffffffffffffffffff16610627610e5d565b73ffffffffffffffffffffffffffffffffffffffff161480610656575061065581610650610e5d565b610ce6565b5b610695576040517f08c379a000000000000000000000000000000000000000000000000000000000815260040161068c9061248b565b60405180910390fd5b61069f8383610e65565b505050565b81600690816106b39190612657565b5080600790816106c39190612657565b505050565b6106d96106d3610e5d565b82610f1e565b610718576040517f08c379a000000000000000000000000000000000000000000000000000000000815260040161070f9061279b565b60405180910390fd5b610723838383610fb3565b505050565b61074383838360405180602001604052806000815250610c1c565b505050565b600080610754836112ac565b9050600073ffffffffffffffffffffffffffffffffffffffff168173ffffffffffffffffffffffffffffffffffffffff16036107c5576040517f08c379a00000000000000000000000000000000000000000000000000000000081526004016107bc90612807565b60405180910390fd5b80915050919050565b60008073ffffffffffffffffffffffffffffffffffffffff168273ffffffffffffffffffffffffffffffffffffffff160361083e576040517f08c379a000000000000000000000000000000000000000000000000000000000815260040161083590612899565b60405180910390fd5b600360008373ffffffffffffffffffffffffffffffffffffffff1673ffffffffffffffffffffffffffffffffffffffff168152602001908152602001600020549050919050565b6006805461089290612356565b80601f01602080910402602001604051908101604052809291908181526020018280546108be90612356565b801561090b5780601f106108e05761010080835404028352916020019161090b565b820191906000526020600020905b8154815290600101906020018083116108ee57829003601f168201915b505050505081565b6007805461092090612356565b80601f016020809104026020016040519081016040528092919081815260200182805461094c90612356565b80156109995780601f1061096e57610100808354040283529160200191610999565b820191906000526020600020905b81548152906001019060200180831161097c57829003601f168201915b505050505081565b606080600660078180546109b490612356565b80601f01602080910402602001604051908101604052809291908181526020018280546109e090612356565b8015610a2d5780601f10610a0257610100808354040283529160200191610a2d565b820191906000526020600020905b815481529060010190602001808311610a1057829003601f168201915b50505050509150808054610a4090612356565b80601f0160208091040260200160405190810160405280929190818152602001828054610a6c90612356565b8015610ab95780601f10610a8e57610100808354040283529160200191610ab9565b820191906000526020600020905b815481529060010190602001808311610a9c57829003601f168201915b50505050509050915091509091565b6060610ad5600854610c7e565b60099081610ae39190612657565b5060098054610af190612356565b80601f0160208091040260200160405190810160405280929190818152602001828054610b1d90612356565b8015610b6a5780601f10610b3f57610100808354040283529160200191610b6a565b820191906000526020600020905b815481529060010190602001808311610b4d57829003601f168201915b5050505050905090565b606060018054610b8390612356565b80601f0160208091040260200160405190810160405280929190818152602001828054610baf90612356565b8015610bfc5780601f10610bd157610100808354040283529160200191610bfc565b820191906000526020600020905b815481529060010190602001808311610bdf57829003601f168201915b5050505050905090565b610c18610c11610e5d565b83836112e9565b5050565b610c2d610c27610e5d565b83610f1e565b610c6c576040517f08c379a0000000000000000000000000000000000000000000000000000000008152600401610c639061279b565b60405180910390fd5b610c7884848484611455565b50505050565b6060610c8982610e12565b6000610c936114b1565b90506000815111610cb35760405180602001604052806000815250610cde565b80610cbd846114c8565b604051602001610cce9291906128f5565b6040516020818303038152906040525b915050919050565b6000600560008473ffffffffffffffffffffffffffffffffffffffff1673ffffffffffffffffffffffffffffffffffffffff16815260200190815260200160002060008373ffffffffffffffffffffffffffffffffffffffff1673ffffffffffffffffffffffffffffffffffffffff16815260200190815260200160002060009054906101000a900460ff16905092915050565b6000610d8882600854611596565b600860008154610d9790612948565b919050819055506008549050919050565b60007f01ffc9a7000000000000000000000000000000000000000000000000000000007bffffffffffffffffffffffffffffffffffffffffffffffffffffffff1916827bffffffffffffffffffffffffffffffffffffffffffffffffffffffff1916149050919050565b610e1b816117b3565b610e5a576040517f08c379a0000000000000000000000000000000000000000000000000000000008152600401610e5190612807565b60405180910390fd5b50565b600033905090565b816004600083815260200190815260200160002060006101000a81548173ffffffffffffffffffffffffffffffffffffffff021916908373ffffffffffffffffffffffffffffffffffffffff160217905550808273ffffffffffffffffffffffffffffffffffffffff16610ed883610748565b73ffffffffffffffffffffffffffffffffffffffff167f8c5be1e5ebec7d5bd14f71427d1e84f3dd0314c0f7b2291e5b200ac8c7c3b92560405160405180910390a45050565b600080610f2a83610748565b90508073ffffffffffffffffffffffffffffffffffffffff168473ffffffffffffffffffffffffffffffffffffffff161480610f6c5750610f6b8185610ce6565b5b80610faa57508373ffffffffffffffffffffffffffffffffffffffff16610f9284610547565b73ffffffffffffffffffffffffffffffffffffffff16145b91505092915050565b8273ffffffffffffffffffffffffffffffffffffffff16610fd382610748565b73ffffffffffffffffffffffffffffffffffffffff1614611029576040517f08c379a000000000000000000000000000000000000000000000000000000000815260040161102090612a02565b60405180910390fd5b600073ffffffffffffffffffffffffffffffffffffffff168273ffffffffffffffffffffffffffffffffffffffff1603611098576040517f08c379a000000000000000000000000000000000000000000000000000000000815260040161108f90612a94565b60405180910390fd5b6110a583838360016117f4565b8273ffffffffffffffffffffffffffffffffffffffff166110c582610748565b73ffffffffffffffffffffffffffffffffffffffff161461111b576040517f08c379a000000000000000000000000000000000000000000000000000000000815260040161111290612a02565b60405180910390fd5b6004600082815260200190815260200160002060006101000a81549073ffffffffffffffffffffffffffffffffffffffff02191690556001600360008573ffffffffffffffffffffffffffffffffffffffff1673ffffffffffffffffffffffffffffffffffffffff168152602001908152602001600020600082825403925050819055506001600360008473ffffffffffffffffffffffffffffffffffffffff1673ffffffffffffffffffffffffffffffffffffffff16815260200190815260200160002060008282540192505081905550816002600083815260200190815260200160002060006101000a81548173ffffffffffffffffffffffffffffffffffffffff021916908373ffffffffffffffffffffffffffffffffffffffff160217905550808273ffffffffffffffffffffffffffffffffffffffff168473ffffffffffffffffffffffffffffffffffffffff167fddf252ad1be2c89b69c2b068fc378daa952ba7f163c4a11628f55a4df523b3ef60405160405180910390a46112a7838383600161191a565b505050565b60006002600083815260200190815260200160002060009054906101000a900473ffffffffffffffffffffffffffffffffffffffff169050919050565b8173ffffffffffffffffffffffffffffffffffffffff168373ffffffffffffffffffffffffffffffffffffffff1603611357576040517f08c379a000000000000000000000000000000000000000000000000000000000815260040161134e90612b00565b60405180910390fd5b80600560008573ffffffffffffffffffffffffffffffffffffffff1673ffffffffffffffffffffffffffffffffffffffff16815260200190815260200160002060008473ffffffffffffffffffffffffffffffffffffffff1673ffffffffffffffffffffffffffffffffffffffff16815260200190815260200160002060006101000a81548160ff0219169083151502179055508173ffffffffffffffffffffffffffffffffffffffff168373ffffffffffffffffffffffffffffffffffffffff167f17307eab39ab6107e8899845ad3d59bd9653f200f220920489ca2b5937696c31836040516114489190611cd1565b60405180910390a3505050565b611460848484610fb3565b61146c84848484611920565b6114ab576040517f08c379a00000000000000000000000000000000000000000000000000000000081526004016114a290612b92565b60405180910390fd5b50505050565b606060405180602001604052806000815250905090565b6060600060016114d784611aa7565b01905060008167ffffffffffffffff8111156114f6576114f5611ed3565b5b6040519080825280601f01601f1916602001820160405280156115285781602001600182028036833780820191505090505b509050600082602001820190505b60011561158b578080600190039150507f3031323334353637383961626364656600000000000000000000000000000000600a86061a8153600a858161157f5761157e612bb2565b5b04945060008503611536575b819350505050919050565b600073ffffffffffffffffffffffffffffffffffffffff168273ffffffffffffffffffffffffffffffffffffffff1603611605576040517f08c379a00000000000000000000000000000000000000000000000000000000081526004016115fc90612c2d565b60405180910390fd5b61160e816117b3565b1561164e576040517f08c379a000000000000000000000000000000000000000000000000000000000815260040161164590612c99565b60405180910390fd5b61165c6000838360016117f4565b611665816117b3565b156116a5576040517f08c379a000000000000000000000000000000000000000000000000000000000815260040161169c90612c99565b60405180910390fd5b6001600360008473ffffffffffffffffffffffffffffffffffffffff1673ffffffffffffffffffffffffffffffffffffffff16815260200190815260200160002060008282540192505081905550816002600083815260200190815260200160002060006101000a81548173ffffffffffffffffffffffffffffffffffffffff021916908373ffffffffffffffffffffffffffffffffffffffff160217905550808273ffffffffffffffffffffffffffffffffffffffff16600073ffffffffffffffffffffffffffffffffffffffff167fddf252ad1be2c89b69c2b068fc378daa952ba7f163c4a11628f55a4df523b3ef60405160405180910390a46117af60008383600161191a565b5050565b60008073ffffffffffffffffffffffffffffffffffffffff166117d5836112ac565b73ffffffffffffffffffffffffffffffffffffffff1614159050919050565b600181111561191457600073ffffffffffffffffffffffffffffffffffffffff168473ffffffffffffffffffffffffffffffffffffffff16146118885780600360008673ffffffffffffffffffffffffffffffffffffffff1673ffffffffffffffffffffffffffffffffffffffff16815260200190815260200160002060008282546118809190612cb9565b925050819055505b600073ffffffffffffffffffffffffffffffffffffffff168373ffffffffffffffffffffffffffffffffffffffff16146119135780600360008573ffffffffffffffffffffffffffffffffffffffff1673ffffffffffffffffffffffffffffffffffffffff168152602001908152602001600020600082825461190b9190612ced565b925050819055505b5b50505050565b50505050565b60006119418473ffffffffffffffffffffffffffffffffffffffff16611bfa565b15611a9a578373ffffffffffffffffffffffffffffffffffffffff1663150b7a0261196a610e5d565b8786866040518563ffffffff1660e01b815260040161198c9493929190612d76565b6020604051808303816000875af19250505080156119c857506040513d601f19601f820116820180604052508101906119c59190612dd7565b60015b611a4a573d80600081146119f8576040519150601f19603f3d011682016040523d82523d6000602084013e6119fd565b606091505b506000815103611a42576040517f08c379a0000000000000000000000000000000000000000000000000000000008152600401611a3990612b92565b60405180910390fd5b805181602001fd5b63150b7a0260e01b7bffffffffffffffffffffffffffffffffffffffffffffffffffffffff1916817bffffffffffffffffffffffffffffffffffffffffffffffffffffffff191614915050611a9f565b600190505b949350505050565b600080600090507a184f03e93ff9f4daa797ed6e38ed64bf6a1f0100000000000000008310611b05577a184f03e93ff9f4daa797ed6e38ed64bf6a1f0100000000000000008381611afb57611afa612bb2565b5b0492506040810190505b6d04ee2d6d415b85acef81000000008310611b42576d04ee2d6d415b85acef81000000008381611b3857611b37612bb2565b5b0492506020810190505b662386f26fc100008310611b7157662386f26fc100008381611b6757611b66612bb2565b5b0492506010810190505b6305f5e1008310611b9a576305f5e1008381611b9057611b8f612bb2565b5b0492506008810190505b6127108310611bbf576127108381611bb557611bb4612bb2565b5b0492506004810190505b60648310611be25760648381611bd857611bd7612bb2565b5b0492506002810190505b600a8310611bf1576001810190505b80915050919050565b6000808273ffffffffffffffffffffffffffffffffffffffff163b119050919050565b6000604051905090565b600080fd5b600080fd5b60007fffffffff0000000000000000000000000000000000000000000000000000000082169050919050565b611c6681611c31565b8114611c7157600080fd5b50565b600081359050611c8381611c5d565b92915050565b600060208284031215611c9f57611c9e611c27565b5b6000611cad84828501611c74565b91505092915050565b60008115159050919050565b611ccb81611cb6565b82525050565b6000602082019050611ce66000830184611cc2565b92915050565b600081519050919050565b600082825260208201905092915050565b60005b83811015611d26578082015181840152602081019050611d0b565b60008484015250505050565b6000601f19601f8301169050919050565b6000611d4e82611cec565b611d588185611cf7565b9350611d68818560208601611d08565b611d7181611d32565b840191505092915050565b60006020820190508181036000830152611d968184611d43565b905092915050565b6000819050919050565b611db181611d9e565b8114611dbc57600080fd5b50565b600081359050611dce81611da8565b92915050565b600060208284031215611dea57611de9611c27565b5b6000611df884828501611dbf565b91505092915050565b600073ffffffffffffffffffffffffffffffffffffffff82169050919050565b6000611e2c82611e01565b9050919050565b611e3c81611e21565b82525050565b6000602082019050611e576000830184611e33565b92915050565b611e6681611e21565b8114611e7157600080fd5b50565b600081359050611e8381611e5d565b92915050565b60008060408385031215611ea057611e9f611c27565b5b6000611eae85828601611e74565b9250506020611ebf85828601611dbf565b9150509250929050565b600080fd5b600080fd5b7f4e487b7100000000000000000000000000000000000000000000000000000000600052604160045260246000fd5b611f0b82611d32565b810181811067ffffffffffffffff82111715611f2a57611f29611ed3565b5b80604052505050565b6000611f3d611c1d565b9050611f498282611f02565b919050565b600067ffffffffffffffff821115611f6957611f68611ed3565b5b611f7282611d32565b9050602081019050919050565b82818337600083830152505050565b6000611fa1611f9c84611f4e565b611f33565b905082815260208101848484011115611fbd57611fbc611ece565b5b611fc8848285611f7f565b509392505050565b600082601f830112611fe557611fe4611ec9565b5b8135611ff5848260208601611f8e565b91505092915050565b6000806040838503121561201557612014611c27565b5b600083013567ffffffffffffffff81111561203357612032611c2c565b5b61203f85828601611fd0565b925050602083013567ffffffffffffffff8111156120605761205f611c2c565b5b61206c85828601611fd0565b9150509250929050565b60008060006060848603121561208f5761208e611c27565b5b600061209d86828701611e74565b93505060206120ae86828701611e74565b92505060406120bf86828701611dbf565b9150509250925092565b6000602082840312156120df576120de611c27565b5b60006120ed84828501611e74565b91505092915050565b6120ff81611d9e565b82525050565b600060208201905061211a60008301846120f6565b92915050565b6000604082019050818103600083015261213a8185611d43565b9050818103602083015261214e8184611d43565b90509392505050565b61216081611cb6565b811461216b57600080fd5b50565b60008135905061217d81612157565b92915050565b6000806040838503121561219a57612199611c27565b5b60006121a885828601611e74565b92505060206121b98582860161216e565b9150509250929050565b600067ffffffffffffffff8211156121de576121dd611ed3565b5b6121e782611d32565b9050602081019050919050565b6000612207612202846121c3565b611f33565b90508281526020810184848401111561222357612222611ece565b5b61222e848285611f7f565b509392505050565b600082601f83011261224b5761224a611ec9565b5b813561225b8482602086016121f4565b91505092915050565b6000806000806080858703121561227e5761227d611c27565b5b600061228c87828801611e74565b945050602061229d87828801611e74565b93505060406122ae87828801611dbf565b925050606085013567ffffffffffffffff8111156122cf576122ce611c2c565b5b6122db87828801612236565b91505092959194509250565b600080604083850312156122fe576122fd611c27565b5b600061230c85828601611e74565b925050602061231d85828601611e74565b9150509250929050565b7f4e487b7100000000000000000000000000000000000000000000000000000000600052602260045260246000fd5b6000600282049050600182168061236e57607f821691505b60208210810361238157612380612327565b5b50919050565b7f4552433732313a20617070726f76616c20746f2063757272656e74206f776e6560008201527f7200000000000000000000000000000000000000000000000000000000000000602082015250565b60006123e3602183611cf7565b91506123ee82612387565b604082019050919050565b60006020820190508181036000830152612412816123d6565b9050919050565b7f4552433732313a20617070726f76652063616c6c6572206973206e6f7420746f60008201527f6b656e206f776e6572206f7220617070726f76656420666f7220616c6c000000602082015250565b6000612475603d83611cf7565b915061248082612419565b604082019050919050565b600060208201905081810360008301526124a481612468565b9050919050565b60008190508160005260206000209050919050565b60006020601f8301049050919050565b600082821b905092915050565b60006008830261250d7fffffffffffffffffffffffffffffffffffffffffffffffffffffffffffffffff826124d0565b61251786836124d0565b95508019841693508086168417925050509392505050565b6000819050919050565b600061255461254f61254a84611d9e565b61252f565b611d9e565b9050919050565b6000819050919050565b61256e83612539565b61258261257a8261255b565b8484546124dd565b825550505050565b600090565b61259761258a565b6125a2818484612565565b505050565b5b818110156125c6576125bb60008261258f565b6001810190506125a8565b5050565b601f82111561260b576125dc816124ab565b6125e5846124c0565b810160208510156125f4578190505b612608612600856124c0565b8301826125a7565b50505b505050565b600082821c905092915050565b600061262e60001984600802612610565b1980831691505092915050565b6000612647838361261d565b9150826002028217905092915050565b61266082611cec565b67ffffffffffffffff81111561267957612678611ed3565b5b6126838254612356565b61268e8282856125ca565b600060209050601f8311600181146126c157600084156126af578287015190505b6126b9858261263b565b865550612721565b601f1984166126cf866124ab565b60005b828110156126f7578489015182556001820191506020850194506020810190506126d2565b868310156127145784890151612710601f89168261261d565b8355505b6001600288020188555050505b505050505050565b7f4552433732313a2063616c6c6572206973206e6f7420746f6b656e206f776e6560008201527f72206f7220617070726f76656400000000000000000000000000000000000000602082015250565b6000612785602d83611cf7565b915061279082612729565b604082019050919050565b600060208201905081810360008301526127b481612778565b9050919050565b7f4552433732313a20696e76616c696420746f6b656e2049440000000000000000600082015250565b60006127f1601883611cf7565b91506127fc826127bb565b602082019050919050565b60006020820190508181036000830152612820816127e4565b9050919050565b7f4552433732313a2061646472657373207a65726f206973206e6f74206120766160008201527f6c6964206f776e65720000000000000000000000000000000000000000000000602082015250565b6000612883602983611cf7565b915061288e82612827565b604082019050919050565b600060208201905081810360008301526128b281612876565b9050919050565b600081905092915050565b60006128cf82611cec565b6128d981856128b9565b93506128e9818560208601611d08565b80840191505092915050565b600061290182856128c4565b915061290d82846128c4565b91508190509392505050565b7f4e487b7100000000000000000000000000000000000000000000000000000000600052601160045260246000fd5b600061295382611d9e565b91507fffffffffffffffffffffffffffffffffffffffffffffffffffffffffffffffff820361298557612984612919565b5b600182019050919050565b7f4552433732313a207472616e736665722066726f6d20696e636f72726563742060008201527f6f776e6572000000000000000000000000000000000000000000000000000000602082015250565b60006129ec602583611cf7565b91506129f782612990565b604082019050919050565b60006020820190508181036000830152612a1b816129df565b9050919050565b7f4552433732313a207472616e7366657220746f20746865207a65726f2061646460008201527f7265737300000000000000000000000000000000000000000000000000000000602082015250565b6000612a7e602483611cf7565b9150612a8982612a22565b604082019050919050565b60006020820190508181036000830152612aad81612a71565b9050919050565b7f4552433732313a20617070726f766520746f2063616c6c657200000000000000600082015250565b6000612aea601983611cf7565b9150612af582612ab4565b602082019050919050565b60006020820190508181036000830152612b1981612add565b9050919050565b7f4552433732313a207472616e7366657220746f206e6f6e20455243373231526560008201527f63656976657220696d706c656d656e7465720000000000000000000000000000602082015250565b6000612b7c603283611cf7565b9150612b8782612b20565b604082019050919050565b60006020820190508181036000830152612bab81612b6f565b9050919050565b7f4e487b7100000000000000000000000000000000000000000000000000000000600052601260045260246000fd5b7f4552433732313a206d696e7420746f20746865207a65726f2061646472657373600082015250565b6000612c17602083611cf7565b9150612c2282612be1565b602082019050919050565b60006020820190508181036000830152612c4681612c0a565b9050919050565b7f4552433732313a20746f6b656e20616c7265616479206d696e74656400000000600082015250565b6000612c83601c83611cf7565b9150612c8e82612c4d565b602082019050919050565b60006020820190508181036000830152612cb281612c76565b9050919050565b6000612cc482611d9e565b9150612ccf83611d9e565b9250828203905081811115612ce757612ce6612919565b5b92915050565b6000612cf882611d9e565b9150612d0383611d9e565b9250828201905080821115612d1b57612d1a612919565b5b92915050565b600081519050919050565b600082825260208201905092915050565b6000612d4882612d21565b612d528185612d2c565b9350612d62818560208601611d08565b612d6b81611d32565b840191505092915050565b6000608082019050612d8b6000830187611e33565b612d986020830186611e33565b612da560408301856120f6565b8181036060830152612db78184612d3d565b905095945050505050565b600081519050612dd181611c5d565b92915050565b600060208284031215612ded57612dec611c27565b5b6000612dfb84828501612dc2565b9150509291505056fea2646970667358221220cb4a49f66d0183e1bf31961960a5ecb24f6165cec0882c5322ee1003581ae60864736f6c63430008110033",
  "devdoc": {
    "kind": "dev",
    "methods": {
      "approve(address,uint256)": {
        "details": "See {IERC721-approve}."
      },
      "balanceOf(address)": {
        "details": "See {IERC721-balanceOf}."
      },
      "getApproved(uint256)": {
        "details": "See {IERC721-getApproved}."
      },
      "isApprovedForAll(address,address)": {
        "details": "See {IERC721-isApprovedForAll}."
      },
      "name()": {
        "details": "See {IERC721Metadata-name}."
      },
      "ownerOf(uint256)": {
        "details": "See {IERC721-ownerOf}."
      },
      "safeTransferFrom(address,address,uint256)": {
        "details": "See {IERC721-safeTransferFrom}."
      },
      "safeTransferFrom(address,address,uint256,bytes)": {
        "details": "See {IERC721-safeTransferFrom}."
      },
      "setApprovalForAll(address,bool)": {
        "details": "See {IERC721-setApprovalForAll}."
      },
      "supportsInterface(bytes4)": {
        "details": "See {IERC165-supportsInterface}."
      },
      "symbol()": {
        "details": "See {IERC721Metadata-symbol}."
      },
      "tokenURI(uint256)": {
        "details": "See {IERC721Metadata-tokenURI}."
      },
      "transferFrom(address,address,uint256)": {
        "details": "See {IERC721-transferFrom}."
      }
    },
    "version": 1
  },
  "userdoc": {
    "kind": "user",
    "methods": {},
    "version": 1
  },
  "storageLayout": {
    "storage": [
      {
        "astId": 25,
        "contract": "contracts/Pudhina.sol:Pudhina",
        "label": "_name",
        "offset": 0,
        "slot": "0",
        "type": "t_string_storage"
      },
      {
        "astId": 27,
        "contract": "contracts/Pudhina.sol:Pudhina",
        "label": "_symbol",
        "offset": 0,
        "slot": "1",
        "type": "t_string_storage"
      },
      {
        "astId": 31,
        "contract": "contracts/Pudhina.sol:Pudhina",
        "label": "_owners",
        "offset": 0,
        "slot": "2",
        "type": "t_mapping(t_uint256,t_address)"
      },
      {
        "astId": 35,
        "contract": "contracts/Pudhina.sol:Pudhina",
        "label": "_balances",
        "offset": 0,
        "slot": "3",
        "type": "t_mapping(t_address,t_uint256)"
      },
      {
        "astId": 39,
        "contract": "contracts/Pudhina.sol:Pudhina",
        "label": "_tokenApprovals",
        "offset": 0,
        "slot": "4",
        "type": "t_mapping(t_uint256,t_address)"
      },
      {
        "astId": 45,
        "contract": "contracts/Pudhina.sol:Pudhina",
        "label": "_operatorApprovals",
        "offset": 0,
        "slot": "5",
        "type": "t_mapping(t_address,t_mapping(t_address,t_bool))"
      },
      {
        "astId": 2541,
        "contract": "contracts/Pudhina.sol:Pudhina",
        "label": "__name",
        "offset": 0,
        "slot": "6",
        "type": "t_string_storage"
      },
      {
        "astId": 2543,
        "contract": "contracts/Pudhina.sol:Pudhina",
        "label": "__symbol",
        "offset": 0,
        "slot": "7",
        "type": "t_string_storage"
      },
      {
        "astId": 2546,
        "contract": "contracts/Pudhina.sol:Pudhina",
        "label": "_tokenId",
        "offset": 0,
        "slot": "8",
        "type": "t_uint256"
      },
      {
        "astId": 2548,
        "contract": "contracts/Pudhina.sol:Pudhina",
        "label": "_tokenURI",
        "offset": 0,
        "slot": "9",
        "type": "t_string_storage"
      }
    ],
    "types": {
      "t_address": {
        "encoding": "inplace",
        "label": "address",
        "numberOfBytes": "20"
      },
      "t_bool": {
        "encoding": "inplace",
        "label": "bool",
        "numberOfBytes": "1"
      },
      "t_mapping(t_address,t_bool)": {
        "encoding": "mapping",
        "key": "t_address",
        "label": "mapping(address => bool)",
        "numberOfBytes": "32",
        "value": "t_bool"
      },
      "t_mapping(t_address,t_mapping(t_address,t_bool))": {
        "encoding": "mapping",
        "key": "t_address",
        "label": "mapping(address => mapping(address => bool))",
        "numberOfBytes": "32",
        "value": "t_mapping(t_address,t_bool)"
      },
      "t_mapping(t_address,t_uint256)": {
        "encoding": "mapping",
        "key": "t_address",
        "label": "mapping(address => uint256)",
        "numberOfBytes": "32",
        "value": "t_uint256"
      },
      "t_mapping(t_uint256,t_address)": {
        "encoding": "mapping",
        "key": "t_uint256",
        "label": "mapping(uint256 => address)",
        "numberOfBytes": "32",
        "value": "t_address"
      },
      "t_string_storage": {
        "encoding": "bytes",
        "label": "string",
        "numberOfBytes": "32"
      },
      "t_uint256": {
        "encoding": "inplace",
        "label": "uint256",
        "numberOfBytes": "32"
      }
    }
  }
}