{
  "address": "0x51bf53F0354A8453F69BDDc9171F5F104c0B032e",
  "abi": [
    {
      "inputs": [
        {
          "internalType": "uint256",
          "name": "mintFee",
          "type": "uint256"
        },
        {
          "internalType": "string[1]",
          "name": "__tokenURIs",
          "type": "string[1]"
        },
        {
          "internalType": "string",
          "name": "_name",
          "type": "string"
        },
        {
          "internalType": "string",
          "name": "_symbol",
          "type": "string"
        }
      ],
      "stateMutability": "nonpayable",
      "type": "constructor"
    },
    {
      "inputs": [],
      "name": "Pudhina__AlreadyInitialized",
      "type": "error"
    },
    {
      "inputs": [],
      "name": "Pudhina__MintFeeNotEnough",
      "type": "error"
    },
    {
      "inputs": [],
      "name": "Pudhina__TransferFailed",
      "type": "error"
    },
    {
      "anonymous": false,
      "inputs": [
        {
          "indexed": true,
          "internalType": "address",
          "name": "owner",
          "type": "address"
        },
        {
          "indexed": true,
          "internalType": "address",
          "name": "approved",
          "type": "address"
        },
        {
          "indexed": true,
          "internalType": "uint256",
          "name": "tokenId",
          "type": "uint256"
        }
      ],
      "name": "Approval",
      "type": "event"
    },
    {
      "anonymous": false,
      "inputs": [
        {
          "indexed": true,
          "internalType": "address",
          "name": "owner",
          "type": "address"
        },
        {
          "indexed": true,
          "internalType": "address",
          "name": "operator",
          "type": "address"
        },
        {
          "indexed": false,
          "internalType": "bool",
          "name": "approved",
          "type": "bool"
        }
      ],
      "name": "ApprovalForAll",
      "type": "event"
    },
    {
      "anonymous": false,
      "inputs": [
        {
          "indexed": true,
          "internalType": "address",
          "name": "previousOwner",
          "type": "address"
        },
        {
          "indexed": true,
          "internalType": "address",
          "name": "newOwner",
          "type": "address"
        }
      ],
      "name": "OwnershipTransferred",
      "type": "event"
    },
    {
      "anonymous": false,
      "inputs": [
        {
          "indexed": true,
          "internalType": "address",
          "name": "from",
          "type": "address"
        },
        {
          "indexed": true,
          "internalType": "address",
          "name": "to",
          "type": "address"
        },
        {
          "indexed": true,
          "internalType": "uint256",
          "name": "tokenId",
          "type": "uint256"
        }
      ],
      "name": "Transfer",
      "type": "event"
    },
    {
      "inputs": [],
      "name": "__name",
      "outputs": [
        {
          "internalType": "string",
          "name": "",
          "type": "string"
        }
      ],
      "stateMutability": "view",
      "type": "function"
    },
    {
      "inputs": [],
      "name": "__symbol",
      "outputs": [
        {
          "internalType": "string",
          "name": "",
          "type": "string"
        }
      ],
      "stateMutability": "view",
      "type": "function"
    },
    {
      "inputs": [
        {
          "internalType": "address",
          "name": "to",
          "type": "address"
        },
        {
          "internalType": "uint256",
          "name": "tokenId",
          "type": "uint256"
        }
      ],
      "name": "approve",
      "outputs": [],
      "stateMutability": "nonpayable",
      "type": "function"
    },
    {
      "inputs": [
        {
          "internalType": "address",
          "name": "owner",
          "type": "address"
        }
      ],
      "name": "balanceOf",
      "outputs": [
        {
          "internalType": "uint256",
          "name": "",
          "type": "uint256"
        }
      ],
      "stateMutability": "view",
      "type": "function"
    },
    {
      "inputs": [
        {
          "internalType": "uint256",
          "name": "tokenId",
          "type": "uint256"
        }
      ],
      "name": "getApproved",
      "outputs": [
        {
          "internalType": "address",
          "name": "",
          "type": "address"
        }
      ],
      "stateMutability": "view",
      "type": "function"
    },
    {
      "inputs": [],
      "name": "getMintFee",
      "outputs": [
        {
          "internalType": "uint256",
          "name": "",
          "type": "uint256"
        }
      ],
      "stateMutability": "view",
      "type": "function"
    },
    {
      "inputs": [
        {
          "internalType": "uint256",
          "name": "tokenId",
          "type": "uint256"
        }
      ],
      "name": "getTokenURI",
      "outputs": [
        {
          "internalType": "string",
          "name": "",
          "type": "string"
        }
      ],
      "stateMutability": "view",
      "type": "function"
    },
    {
      "inputs": [
        {
          "internalType": "address",
          "name": "owner",
          "type": "address"
        },
        {
          "internalType": "address",
          "name": "operator",
          "type": "address"
        }
      ],
      "name": "isApprovedForAll",
      "outputs": [
        {
          "internalType": "bool",
          "name": "",
          "type": "bool"
        }
      ],
      "stateMutability": "view",
      "type": "function"
    },
    {
      "inputs": [],
      "name": "mintNft",
      "outputs": [],
      "stateMutability": "payable",
      "type": "function"
    },
    {
      "inputs": [],
      "name": "name",
      "outputs": [
        {
          "internalType": "string",
          "name": "",
          "type": "string"
        }
      ],
      "stateMutability": "view",
      "type": "function"
    },
    {
      "inputs": [],
      "name": "owner",
      "outputs": [
        {
          "internalType": "address",
          "name": "",
          "type": "address"
        }
      ],
      "stateMutability": "view",
      "type": "function"
    },
    {
      "inputs": [
        {
          "internalType": "uint256",
          "name": "tokenId",
          "type": "uint256"
        }
      ],
      "name": "ownerOf",
      "outputs": [
        {
          "internalType": "address",
          "name": "",
          "type": "address"
        }
      ],
      "stateMutability": "view",
      "type": "function"
    },
    {
      "inputs": [],
      "name": "renounceOwnership",
      "outputs": [],
      "stateMutability": "nonpayable",
      "type": "function"
    },
    {
      "inputs": [],
      "name": "returnNameAndSymbol",
      "outputs": [
        {
          "internalType": "string",
          "name": "",
          "type": "string"
        },
        {
          "internalType": "string",
          "name": "",
          "type": "string"
        }
      ],
      "stateMutability": "view",
      "type": "function"
    },
    {
      "inputs": [
        {
          "internalType": "address",
          "name": "from",
          "type": "address"
        },
        {
          "internalType": "address",
          "name": "to",
          "type": "address"
        },
        {
          "internalType": "uint256",
          "name": "tokenId",
          "type": "uint256"
        }
      ],
      "name": "safeTransferFrom",
      "outputs": [],
      "stateMutability": "nonpayable",
      "type": "function"
    },
    {
      "inputs": [
        {
          "internalType": "address",
          "name": "from",
          "type": "address"
        },
        {
          "internalType": "address",
          "name": "to",
          "type": "address"
        },
        {
          "internalType": "uint256",
          "name": "tokenId",
          "type": "uint256"
        },
        {
          "internalType": "bytes",
          "name": "data",
          "type": "bytes"
        }
      ],
      "name": "safeTransferFrom",
      "outputs": [],
      "stateMutability": "nonpayable",
      "type": "function"
    },
    {
      "inputs": [
        {
          "internalType": "address",
          "name": "operator",
          "type": "address"
        },
        {
          "internalType": "bool",
          "name": "approved",
          "type": "bool"
        }
      ],
      "name": "setApprovalForAll",
      "outputs": [],
      "stateMutability": "nonpayable",
      "type": "function"
    },
    {
      "inputs": [
        {
          "internalType": "bytes4",
          "name": "interfaceId",
          "type": "bytes4"
        }
      ],
      "name": "supportsInterface",
      "outputs": [
        {
          "internalType": "bool",
          "name": "",
          "type": "bool"
        }
      ],
      "stateMutability": "view",
      "type": "function"
    },
    {
      "inputs": [],
      "name": "symbol",
      "outputs": [
        {
          "internalType": "string",
          "name": "",
          "type": "string"
        }
      ],
      "stateMutability": "view",
      "type": "function"
    },
    {
      "inputs": [
        {
          "internalType": "uint256",
          "name": "tokenId",
          "type": "uint256"
        }
      ],
      "name": "tokenURI",
      "outputs": [
        {
          "internalType": "string",
          "name": "",
          "type": "string"
        }
      ],
      "stateMutability": "view",
      "type": "function"
    },
    {
      "inputs": [
        {
          "internalType": "address",
          "name": "from",
          "type": "address"
        },
        {
          "internalType": "address",
          "name": "to",
          "type": "address"
        },
        {
          "internalType": "uint256",
          "name": "tokenId",
          "type": "uint256"
        }
      ],
      "name": "transferFrom",
      "outputs": [],
      "stateMutability": "nonpayable",
      "type": "function"
    },
    {
      "inputs": [
        {
          "internalType": "address",
          "name": "newOwner",
          "type": "address"
        }
      ],
      "name": "transferOwnership",
      "outputs": [],
      "stateMutability": "nonpayable",
      "type": "function"
    },
    {
      "inputs": [],
      "name": "withdraw",
      "outputs": [],
      "stateMutability": "nonpayable",
      "type": "function"
    }
  ],
  "transactionHash": "0x89437eb385b54f8f2d6d281da28a3ccfd720bf906ed27004f31463eceadbcf42",
  "args": [
    "10000000000000",
    [
      "ipfs://QmY6UNt5ScJKDru6aHAqRHeHg1vb1tBkYxvwjtkvJFhYBR"
    ],
    "Emboss",
    "Eb"
  ],
  "numDeployments": 4,
  "solcInputHash": "b2b7c35376b7ef9cb632ff95f3c41fe2",
  "bytecode": "0x60a06040523480156200001157600080fd5b5060405162003feb38038062003feb8339818101604052810190620000379190620005bb565b818181600090816200004a9190620008cb565b5080600190816200005c9190620008cb565b5050506200007f62000073620000ce60201b60201c565b620000d660201b60201c565b600060088190555083608081815250508160099081620000a09190620008cb565b5080600a9081620000b29190620008cb565b50620000c4836200019c60201b60201c565b50505050620009b2565b600033905090565b6000600760009054906101000a900473ffffffffffffffffffffffffffffffffffffffff16905081600760006101000a81548173ffffffffffffffffffffffffffffffffffffffff021916908373ffffffffffffffffffffffffffffffffffffffff1602179055508173ffffffffffffffffffffffffffffffffffffffff168173ffffffffffffffffffffffffffffffffffffffff167f8be0079c531659141344cd1fd0a4f28419497f9722a3daafe3b4186f6b6457e060405160405180910390a35050565b600d60009054906101000a900460ff1615620001e4576040517ff23b626a00000000000000000000000000000000000000000000000000000000815260040160405180910390fd5b80600c906001620001f792919062000216565b506001600d60006101000a81548160ff02191690831515021790555050565b82805482825590600052602060002090810192821562000263579160200282015b8281111562000262578251829081620002519190620008cb565b509160200191906001019062000237565b5b50905062000272919062000276565b5090565b5b808211156200029a57600081816200029091906200029e565b5060010162000277565b5090565b508054620002ac90620006c4565b6000825580601f10620002c05750620002e1565b601f016020900490600052602060002090810190620002e09190620002e4565b5b50565b5b80821115620002ff576000816000905550600101620002e5565b5090565b6000604051905090565b600080fd5b600080fd5b6000819050919050565b6200032c8162000317565b81146200033857600080fd5b50565b6000815190506200034c8162000321565b92915050565b600080fd5b6000601f19601f8301169050919050565b7f4e487b7100000000000000000000000000000000000000000000000000000000600052604160045260246000fd5b620003a28262000357565b810181811067ffffffffffffffff82111715620003c457620003c362000368565b5b80604052505050565b6000620003d962000303565b9050620003e7828262000397565b919050565b600067ffffffffffffffff8211156200040a576200040962000368565b5b602082029050919050565b600080fd5b600080fd5b600067ffffffffffffffff8211156200043d576200043c62000368565b5b620004488262000357565b9050602081019050919050565b60005b838110156200047557808201518184015260208101905062000458565b60008484015250505050565b60006200049862000492846200041f565b620003cd565b905082815260208101848484011115620004b757620004b66200041a565b5b620004c484828562000455565b509392505050565b600082601f830112620004e457620004e362000352565b5b8151620004f684826020860162000481565b91505092915050565b6000620005166200051084620003ec565b620003cd565b9050806020840283018581111562000533576200053262000415565b5b835b818110156200058157805167ffffffffffffffff8111156200055c576200055b62000352565b5b8086016200056b8982620004cc565b8552602085019450505060208101905062000535565b5050509392505050565b600082601f830112620005a357620005a262000352565b5b6001620005b2848285620004ff565b91505092915050565b60008060008060808587031215620005d857620005d76200030d565b5b6000620005e8878288016200033b565b945050602085015167ffffffffffffffff8111156200060c576200060b62000312565b5b6200061a878288016200058b565b935050604085015167ffffffffffffffff8111156200063e576200063d62000312565b5b6200064c87828801620004cc565b925050606085015167ffffffffffffffff81111562000670576200066f62000312565b5b6200067e87828801620004cc565b91505092959194509250565b600081519050919050565b7f4e487b7100000000000000000000000000000000000000000000000000000000600052602260045260246000fd5b60006002820490506001821680620006dd57607f821691505b602082108103620006f357620006f262000695565b5b50919050565b60008190508160005260206000209050919050565b60006020601f8301049050919050565b600082821b905092915050565b6000600883026200075d7fffffffffffffffffffffffffffffffffffffffffffffffffffffffffffffffff826200071e565b6200076986836200071e565b95508019841693508086168417925050509392505050565b6000819050919050565b6000620007ac620007a6620007a08462000317565b62000781565b62000317565b9050919050565b6000819050919050565b620007c8836200078b565b620007e0620007d782620007b3565b8484546200072b565b825550505050565b600090565b620007f7620007e8565b62000804818484620007bd565b505050565b5b818110156200082c5762000820600082620007ed565b6001810190506200080a565b5050565b601f8211156200087b576200084581620006f9565b62000850846200070e565b8101602085101562000860578190505b620008786200086f856200070e565b83018262000809565b50505b505050565b600082821c905092915050565b6000620008a06000198460080262000880565b1980831691505092915050565b6000620008bb83836200088d565b9150826002028217905092915050565b620008d6826200068a565b67ffffffffffffffff811115620008f257620008f162000368565b5b620008fe8254620006c4565b6200090b82828562000830565b600060209050601f8311600181146200094357600084156200092e578287015190505b6200093a8582620008ad565b865550620009aa565b601f1984166200095386620006f9565b60005b828110156200097d5784890151825560018201915060208501945060208101905062000956565b868310156200099d578489015162000999601f8916826200088d565b8355505b6001600288020188555050505b505050505050565b608051613616620009d560003960008181610be40152610ef301526136166000f3fe6080604052600436106101405760003560e01c80637269ada1116100b6578063a22cb4651161006f578063a22cb4651461044d578063b88d4fde14610476578063c2229fea1461049f578063c87b56dd146104a9578063e985e9c5146104e6578063f2fde38b1461052357610140565b80637269ada11461034a5780637a5caab31461037557806382215cb1146103a057806387322c66146103cb5780638da5cb5b146103f757806395d89b411461042257610140565b80633bb3a24d116101085780633bb3a24d1461023c5780633ccfd60b1461027957806342842e0e146102905780636352211e146102b957806370a08231146102f6578063715018a61461033357610140565b806301ffc9a71461014557806306fdde0314610182578063081812fc146101ad578063095ea7b3146101ea57806323b872dd14610213575b600080fd5b34801561015157600080fd5b5061016c600480360381019061016791906123c1565b61054c565b6040516101799190612409565b60405180910390f35b34801561018e57600080fd5b5061019761062e565b6040516101a491906124b4565b60405180910390f35b3480156101b957600080fd5b506101d460048036038101906101cf919061250c565b6106c0565b6040516101e1919061257a565b60405180910390f35b3480156101f657600080fd5b50610211600480360381019061020c91906125c1565b610706565b005b34801561021f57600080fd5b5061023a60048036038101906102359190612601565b61081d565b005b34801561024857600080fd5b50610263600480360381019061025e919061250c565b61087d565b60405161027091906124b4565b60405180910390f35b34801561028557600080fd5b5061028e61092d565b005b34801561029c57600080fd5b506102b760048036038101906102b29190612601565b6109e1565b005b3480156102c557600080fd5b506102e060048036038101906102db919061250c565b610a01565b6040516102ed919061257a565b60405180910390f35b34801561030257600080fd5b5061031d60048036038101906103189190612654565b610a87565b60405161032a9190612690565b60405180910390f35b34801561033f57600080fd5b50610348610b3e565b005b34801561035657600080fd5b5061035f610b52565b60405161036c91906124b4565b60405180910390f35b34801561038157600080fd5b5061038a610be0565b6040516103979190612690565b60405180910390f35b3480156103ac57600080fd5b506103b5610c08565b6040516103c291906124b4565b60405180910390f35b3480156103d757600080fd5b506103e0610c96565b6040516103ee9291906126ab565b60405180910390f35b34801561040357600080fd5b5061040c610dbd565b604051610419919061257a565b60405180910390f35b34801561042e57600080fd5b50610437610de7565b60405161044491906124b4565b60405180910390f35b34801561045957600080fd5b50610474600480360381019061046f919061270e565b610e79565b005b34801561048257600080fd5b5061049d60048036038101906104989190612883565b610e8f565b005b6104a7610ef1565b005b3480156104b557600080fd5b506104d060048036038101906104cb919061250c565b611025565b6040516104dd91906124b4565b60405180910390f35b3480156104f257600080fd5b5061050d60048036038101906105089190612906565b611137565b60405161051a9190612409565b60405180910390f35b34801561052f57600080fd5b5061054a60048036038101906105459190612654565b6111cb565b005b60007f80ac58cd000000000000000000000000000000000000000000000000000000007bffffffffffffffffffffffffffffffffffffffffffffffffffffffff1916827bffffffffffffffffffffffffffffffffffffffffffffffffffffffff1916148061061757507f5b5e139f000000000000000000000000000000000000000000000000000000007bffffffffffffffffffffffffffffffffffffffffffffffffffffffff1916827bffffffffffffffffffffffffffffffffffffffffffffffffffffffff1916145b8061062757506106268261124e565b5b9050919050565b60606000805461063d90612975565b80601f016020809104026020016040519081016040528092919081815260200182805461066990612975565b80156106b65780601f1061068b576101008083540402835291602001916106b6565b820191906000526020600020905b81548152906001019060200180831161069957829003601f168201915b5050505050905090565b60006106cb826112b8565b6004600083815260200190815260200160002060009054906101000a900473ffffffffffffffffffffffffffffffffffffffff169050919050565b600061071182610a01565b90508073ffffffffffffffffffffffffffffffffffffffff168373ffffffffffffffffffffffffffffffffffffffff1603610781576040517f08c379a000000000000000000000000000000000000000000000000000000000815260040161077890612a18565b60405180910390fd5b8073ffffffffffffffffffffffffffffffffffffffff166107a0611303565b73ffffffffffffffffffffffffffffffffffffffff1614806107cf57506107ce816107c9611303565b611137565b5b61080e576040517f08c379a000000000000000000000000000000000000000000000000000000000815260040161080590612aaa565b60405180910390fd5b610818838361130b565b505050565b61082e610828611303565b826113c4565b61086d576040517f08c379a000000000000000000000000000000000000000000000000000000000815260040161086490612b3c565b60405180910390fd5b610878838383611459565b505050565b6060600c828154811061089357610892612b5c565b5b9060005260206000200180546108a890612975565b80601f01602080910402602001604051908101604052809291908181526020018280546108d490612975565b80156109215780601f106108f657610100808354040283529160200191610921565b820191906000526020600020905b81548152906001019060200180831161090457829003601f168201915b50505050509050919050565b610935611752565b600047905060003373ffffffffffffffffffffffffffffffffffffffff168260405161096090612bbc565b60006040518083038185875af1925050503d806000811461099d576040519150601f19603f3d011682016040523d82523d6000602084013e6109a2565b606091505b50509050806109dd576040517fb858379e00000000000000000000000000000000000000000000000000000000815260040160405180910390fd5b5050565b6109fc83838360405180602001604052806000815250610e8f565b505050565b600080610a0d836117d0565b9050600073ffffffffffffffffffffffffffffffffffffffff168173ffffffffffffffffffffffffffffffffffffffff1603610a7e576040517f08c379a0000000000000000000000000000000000000000000000000000000008152600401610a7590612c1d565b60405180910390fd5b80915050919050565b60008073ffffffffffffffffffffffffffffffffffffffff168273ffffffffffffffffffffffffffffffffffffffff1603610af7576040517f08c379a0000000000000000000000000000000000000000000000000000000008152600401610aee90612caf565b60405180910390fd5b600360008373ffffffffffffffffffffffffffffffffffffffff1673ffffffffffffffffffffffffffffffffffffffff168152602001908152602001600020549050919050565b610b46611752565b610b50600061180d565b565b60098054610b5f90612975565b80601f0160208091040260200160405190810160405280929190818152602001828054610b8b90612975565b8015610bd85780601f10610bad57610100808354040283529160200191610bd8565b820191906000526020600020905b815481529060010190602001808311610bbb57829003601f168201915b505050505081565b60007f0000000000000000000000000000000000000000000000000000000000000000905090565b600a8054610c1590612975565b80601f0160208091040260200160405190810160405280929190818152602001828054610c4190612975565b8015610c8e5780601f10610c6357610100808354040283529160200191610c8e565b820191906000526020600020905b815481529060010190602001808311610c7157829003601f168201915b505050505081565b6060806009600a818054610ca990612975565b80601f0160208091040260200160405190810160405280929190818152602001828054610cd590612975565b8015610d225780601f10610cf757610100808354040283529160200191610d22565b820191906000526020600020905b815481529060010190602001808311610d0557829003601f168201915b50505050509150808054610d3590612975565b80601f0160208091040260200160405190810160405280929190818152602001828054610d6190612975565b8015610dae5780601f10610d8357610100808354040283529160200191610dae565b820191906000526020600020905b815481529060010190602001808311610d9157829003601f168201915b50505050509050915091509091565b6000600760009054906101000a900473ffffffffffffffffffffffffffffffffffffffff16905090565b606060018054610df690612975565b80601f0160208091040260200160405190810160405280929190818152602001828054610e2290612975565b8015610e6f5780601f10610e4457610100808354040283529160200191610e6f565b820191906000526020600020905b815481529060010190602001808311610e5257829003601f168201915b5050505050905090565b610e8b610e84611303565b83836118d3565b5050565b610ea0610e9a611303565b836113c4565b610edf576040517f08c379a0000000000000000000000000000000000000000000000000000000008152600401610ed690612b3c565b60405180910390fd5b610eeb84848484611a3f565b50505050565b7f0000000000000000000000000000000000000000000000000000000000000000341015610f4b576040517fa172657400000000000000000000000000000000000000000000000000000000815260040160405180910390fd5b60006008549050600854600854610f629190612cfe565b600881905550610f723382611a9b565b61102281600c8381548110610f8a57610f89612b5c565b5b906000526020600020018054610f9f90612975565b80601f0160208091040260200160405190810160405280929190818152602001828054610fcb90612975565b80156110185780601f10610fed57610100808354040283529160200191611018565b820191906000526020600020905b815481529060010190602001808311610ffb57829003601f168201915b5050505050611ab9565b50565b6060611030826112b8565b600060066000848152602001908152602001600020805461105090612975565b80601f016020809104026020016040519081016040528092919081815260200182805461107c90612975565b80156110c95780601f1061109e576101008083540402835291602001916110c9565b820191906000526020600020905b8154815290600101906020018083116110ac57829003601f168201915b5050505050905060006110da611b26565b905060008151036110ef578192505050611132565b60008251111561112457808260405160200161110c929190612d6e565b60405160208183030381529060405292505050611132565b61112d84611b3d565b925050505b919050565b6000600560008473ffffffffffffffffffffffffffffffffffffffff1673ffffffffffffffffffffffffffffffffffffffff16815260200190815260200160002060008373ffffffffffffffffffffffffffffffffffffffff1673ffffffffffffffffffffffffffffffffffffffff16815260200190815260200160002060009054906101000a900460ff16905092915050565b6111d3611752565b600073ffffffffffffffffffffffffffffffffffffffff168173ffffffffffffffffffffffffffffffffffffffff1603611242576040517f08c379a000000000000000000000000000000000000000000000000000000000815260040161123990612e04565b60405180910390fd5b61124b8161180d565b50565b60007f01ffc9a7000000000000000000000000000000000000000000000000000000007bffffffffffffffffffffffffffffffffffffffffffffffffffffffff1916827bffffffffffffffffffffffffffffffffffffffffffffffffffffffff1916149050919050565b6112c181611ba5565b611300576040517f08c379a00000000000000000000000000000000000000000000000000000000081526004016112f790612c1d565b60405180910390fd5b50565b600033905090565b816004600083815260200190815260200160002060006101000a81548173ffffffffffffffffffffffffffffffffffffffff021916908373ffffffffffffffffffffffffffffffffffffffff160217905550808273ffffffffffffffffffffffffffffffffffffffff1661137e83610a01565b73ffffffffffffffffffffffffffffffffffffffff167f8c5be1e5ebec7d5bd14f71427d1e84f3dd0314c0f7b2291e5b200ac8c7c3b92560405160405180910390a45050565b6000806113d083610a01565b90508073ffffffffffffffffffffffffffffffffffffffff168473ffffffffffffffffffffffffffffffffffffffff16148061141257506114118185611137565b5b8061145057508373ffffffffffffffffffffffffffffffffffffffff16611438846106c0565b73ffffffffffffffffffffffffffffffffffffffff16145b91505092915050565b8273ffffffffffffffffffffffffffffffffffffffff1661147982610a01565b73ffffffffffffffffffffffffffffffffffffffff16146114cf576040517f08c379a00000000000000000000000000000000000000000000000000000000081526004016114c690612e96565b60405180910390fd5b600073ffffffffffffffffffffffffffffffffffffffff168273ffffffffffffffffffffffffffffffffffffffff160361153e576040517f08c379a000000000000000000000000000000000000000000000000000000000815260040161153590612f28565b60405180910390fd5b61154b8383836001611be6565b8273ffffffffffffffffffffffffffffffffffffffff1661156b82610a01565b73ffffffffffffffffffffffffffffffffffffffff16146115c1576040517f08c379a00000000000000000000000000000000000000000000000000000000081526004016115b890612e96565b60405180910390fd5b6004600082815260200190815260200160002060006101000a81549073ffffffffffffffffffffffffffffffffffffffff02191690556001600360008573ffffffffffffffffffffffffffffffffffffffff1673ffffffffffffffffffffffffffffffffffffffff168152602001908152602001600020600082825403925050819055506001600360008473ffffffffffffffffffffffffffffffffffffffff1673ffffffffffffffffffffffffffffffffffffffff16815260200190815260200160002060008282540192505081905550816002600083815260200190815260200160002060006101000a81548173ffffffffffffffffffffffffffffffffffffffff021916908373ffffffffffffffffffffffffffffffffffffffff160217905550808273ffffffffffffffffffffffffffffffffffffffff168473ffffffffffffffffffffffffffffffffffffffff167fddf252ad1be2c89b69c2b068fc378daa952ba7f163c4a11628f55a4df523b3ef60405160405180910390a461174d8383836001611d0c565b505050565b61175a611303565b73ffffffffffffffffffffffffffffffffffffffff16611778610dbd565b73ffffffffffffffffffffffffffffffffffffffff16146117ce576040517f08c379a00000000000000000000000000000000000000000000000000000000081526004016117c590612f94565b60405180910390fd5b565b60006002600083815260200190815260200160002060009054906101000a900473ffffffffffffffffffffffffffffffffffffffff169050919050565b6000600760009054906101000a900473ffffffffffffffffffffffffffffffffffffffff16905081600760006101000a81548173ffffffffffffffffffffffffffffffffffffffff021916908373ffffffffffffffffffffffffffffffffffffffff1602179055508173ffffffffffffffffffffffffffffffffffffffff168173ffffffffffffffffffffffffffffffffffffffff167f8be0079c531659141344cd1fd0a4f28419497f9722a3daafe3b4186f6b6457e060405160405180910390a35050565b8173ffffffffffffffffffffffffffffffffffffffff168373ffffffffffffffffffffffffffffffffffffffff1603611941576040517f08c379a000000000000000000000000000000000000000000000000000000000815260040161193890613000565b60405180910390fd5b80600560008573ffffffffffffffffffffffffffffffffffffffff1673ffffffffffffffffffffffffffffffffffffffff16815260200190815260200160002060008473ffffffffffffffffffffffffffffffffffffffff1673ffffffffffffffffffffffffffffffffffffffff16815260200190815260200160002060006101000a81548160ff0219169083151502179055508173ffffffffffffffffffffffffffffffffffffffff168373ffffffffffffffffffffffffffffffffffffffff167f17307eab39ab6107e8899845ad3d59bd9653f200f220920489ca2b5937696c3183604051611a329190612409565b60405180910390a3505050565b611a4a848484611459565b611a5684848484611d12565b611a95576040517f08c379a0000000000000000000000000000000000000000000000000000000008152600401611a8c90613092565b60405180910390fd5b50505050565b611ab5828260405180602001604052806000815250611e99565b5050565b611ac282611ba5565b611b01576040517f08c379a0000000000000000000000000000000000000000000000000000000008152600401611af890613124565b60405180910390fd5b80600660008481526020019081526020016000209081611b2191906132f0565b505050565b606060405180602001604052806000815250905090565b6060611b48826112b8565b6000611b52611b26565b90506000815111611b725760405180602001604052806000815250611b9d565b80611b7c84611ef4565b604051602001611b8d929190612d6e565b6040516020818303038152906040525b915050919050565b60008073ffffffffffffffffffffffffffffffffffffffff16611bc7836117d0565b73ffffffffffffffffffffffffffffffffffffffff1614159050919050565b6001811115611d0657600073ffffffffffffffffffffffffffffffffffffffff168473ffffffffffffffffffffffffffffffffffffffff1614611c7a5780600360008673ffffffffffffffffffffffffffffffffffffffff1673ffffffffffffffffffffffffffffffffffffffff1681526020019081526020016000206000828254611c7291906133c2565b925050819055505b600073ffffffffffffffffffffffffffffffffffffffff168373ffffffffffffffffffffffffffffffffffffffff1614611d055780600360008573ffffffffffffffffffffffffffffffffffffffff1673ffffffffffffffffffffffffffffffffffffffff1681526020019081526020016000206000828254611cfd9190612cfe565b925050819055505b5b50505050565b50505050565b6000611d338473ffffffffffffffffffffffffffffffffffffffff16611fc2565b15611e8c578373ffffffffffffffffffffffffffffffffffffffff1663150b7a02611d5c611303565b8786866040518563ffffffff1660e01b8152600401611d7e949392919061344b565b6020604051808303816000875af1925050508015611dba57506040513d601f19601f82011682018060405250810190611db791906134ac565b60015b611e3c573d8060008114611dea576040519150601f19603f3d011682016040523d82523d6000602084013e611def565b606091505b506000815103611e34576040517f08c379a0000000000000000000000000000000000000000000000000000000008152600401611e2b90613092565b60405180910390fd5b805181602001fd5b63150b7a0260e01b7bffffffffffffffffffffffffffffffffffffffffffffffffffffffff1916817bffffffffffffffffffffffffffffffffffffffffffffffffffffffff191614915050611e91565b600190505b949350505050565b611ea38383611fe5565b611eb06000848484611d12565b611eef576040517f08c379a0000000000000000000000000000000000000000000000000000000008152600401611ee690613092565b60405180910390fd5b505050565b606060006001611f0384612202565b01905060008167ffffffffffffffff811115611f2257611f21612758565b5b6040519080825280601f01601f191660200182016040528015611f545781602001600182028036833780820191505090505b509050600082602001820190505b600115611fb7578080600190039150507f3031323334353637383961626364656600000000000000000000000000000000600a86061a8153600a8581611fab57611faa6134d9565b5b04945060008503611f62575b819350505050919050565b6000808273ffffffffffffffffffffffffffffffffffffffff163b119050919050565b600073ffffffffffffffffffffffffffffffffffffffff168273ffffffffffffffffffffffffffffffffffffffff1603612054576040517f08c379a000000000000000000000000000000000000000000000000000000000815260040161204b90613554565b60405180910390fd5b61205d81611ba5565b1561209d576040517f08c379a0000000000000000000000000000000000000000000000000000000008152600401612094906135c0565b60405180910390fd5b6120ab600083836001611be6565b6120b481611ba5565b156120f4576040517f08c379a00000000000000000000000000000000000000000000000000000000081526004016120eb906135c0565b60405180910390fd5b6001600360008473ffffffffffffffffffffffffffffffffffffffff1673ffffffffffffffffffffffffffffffffffffffff16815260200190815260200160002060008282540192505081905550816002600083815260200190815260200160002060006101000a81548173ffffffffffffffffffffffffffffffffffffffff021916908373ffffffffffffffffffffffffffffffffffffffff160217905550808273ffffffffffffffffffffffffffffffffffffffff16600073ffffffffffffffffffffffffffffffffffffffff167fddf252ad1be2c89b69c2b068fc378daa952ba7f163c4a11628f55a4df523b3ef60405160405180910390a46121fe600083836001611d0c565b5050565b600080600090507a184f03e93ff9f4daa797ed6e38ed64bf6a1f0100000000000000008310612260577a184f03e93ff9f4daa797ed6e38ed64bf6a1f0100000000000000008381612256576122556134d9565b5b0492506040810190505b6d04ee2d6d415b85acef8100000000831061229d576d04ee2d6d415b85acef81000000008381612293576122926134d9565b5b0492506020810190505b662386f26fc1000083106122cc57662386f26fc1000083816122c2576122c16134d9565b5b0492506010810190505b6305f5e10083106122f5576305f5e10083816122eb576122ea6134d9565b5b0492506008810190505b612710831061231a5761271083816123105761230f6134d9565b5b0492506004810190505b6064831061233d5760648381612333576123326134d9565b5b0492506002810190505b600a831061234c576001810190505b80915050919050565b6000604051905090565b600080fd5b600080fd5b60007fffffffff0000000000000000000000000000000000000000000000000000000082169050919050565b61239e81612369565b81146123a957600080fd5b50565b6000813590506123bb81612395565b92915050565b6000602082840312156123d7576123d661235f565b5b60006123e5848285016123ac565b91505092915050565b60008115159050919050565b612403816123ee565b82525050565b600060208201905061241e60008301846123fa565b92915050565b600081519050919050565b600082825260208201905092915050565b60005b8381101561245e578082015181840152602081019050612443565b60008484015250505050565b6000601f19601f8301169050919050565b600061248682612424565b612490818561242f565b93506124a0818560208601612440565b6124a98161246a565b840191505092915050565b600060208201905081810360008301526124ce818461247b565b905092915050565b6000819050919050565b6124e9816124d6565b81146124f457600080fd5b50565b600081359050612506816124e0565b92915050565b6000602082840312156125225761252161235f565b5b6000612530848285016124f7565b91505092915050565b600073ffffffffffffffffffffffffffffffffffffffff82169050919050565b600061256482612539565b9050919050565b61257481612559565b82525050565b600060208201905061258f600083018461256b565b92915050565b61259e81612559565b81146125a957600080fd5b50565b6000813590506125bb81612595565b92915050565b600080604083850312156125d8576125d761235f565b5b60006125e6858286016125ac565b92505060206125f7858286016124f7565b9150509250929050565b60008060006060848603121561261a5761261961235f565b5b6000612628868287016125ac565b9350506020612639868287016125ac565b925050604061264a868287016124f7565b9150509250925092565b60006020828403121561266a5761266961235f565b5b6000612678848285016125ac565b91505092915050565b61268a816124d6565b82525050565b60006020820190506126a56000830184612681565b92915050565b600060408201905081810360008301526126c5818561247b565b905081810360208301526126d9818461247b565b90509392505050565b6126eb816123ee565b81146126f657600080fd5b50565b600081359050612708816126e2565b92915050565b600080604083850312156127255761272461235f565b5b6000612733858286016125ac565b9250506020612744858286016126f9565b9150509250929050565b600080fd5b600080fd5b7f4e487b7100000000000000000000000000000000000000000000000000000000600052604160045260246000fd5b6127908261246a565b810181811067ffffffffffffffff821117156127af576127ae612758565b5b80604052505050565b60006127c2612355565b90506127ce8282612787565b919050565b600067ffffffffffffffff8211156127ee576127ed612758565b5b6127f78261246a565b9050602081019050919050565b82818337600083830152505050565b6000612826612821846127d3565b6127b8565b90508281526020810184848401111561284257612841612753565b5b61284d848285612804565b509392505050565b600082601f83011261286a5761286961274e565b5b813561287a848260208601612813565b91505092915050565b6000806000806080858703121561289d5761289c61235f565b5b60006128ab878288016125ac565b94505060206128bc878288016125ac565b93505060406128cd878288016124f7565b925050606085013567ffffffffffffffff8111156128ee576128ed612364565b5b6128fa87828801612855565b91505092959194509250565b6000806040838503121561291d5761291c61235f565b5b600061292b858286016125ac565b925050602061293c858286016125ac565b9150509250929050565b7f4e487b7100000000000000000000000000000000000000000000000000000000600052602260045260246000fd5b6000600282049050600182168061298d57607f821691505b6020821081036129a05761299f612946565b5b50919050565b7f4552433732313a20617070726f76616c20746f2063757272656e74206f776e6560008201527f7200000000000000000000000000000000000000000000000000000000000000602082015250565b6000612a0260218361242f565b9150612a0d826129a6565b604082019050919050565b60006020820190508181036000830152612a31816129f5565b9050919050565b7f4552433732313a20617070726f76652063616c6c6572206973206e6f7420746f60008201527f6b656e206f776e6572206f7220617070726f76656420666f7220616c6c000000602082015250565b6000612a94603d8361242f565b9150612a9f82612a38565b604082019050919050565b60006020820190508181036000830152612ac381612a87565b9050919050565b7f4552433732313a2063616c6c6572206973206e6f7420746f6b656e206f776e6560008201527f72206f7220617070726f76656400000000000000000000000000000000000000602082015250565b6000612b26602d8361242f565b9150612b3182612aca565b604082019050919050565b60006020820190508181036000830152612b5581612b19565b9050919050565b7f4e487b7100000000000000000000000000000000000000000000000000000000600052603260045260246000fd5b600081905092915050565b50565b6000612ba6600083612b8b565b9150612bb182612b96565b600082019050919050565b6000612bc782612b99565b9150819050919050565b7f4552433732313a20696e76616c696420746f6b656e2049440000000000000000600082015250565b6000612c0760188361242f565b9150612c1282612bd1565b602082019050919050565b60006020820190508181036000830152612c3681612bfa565b9050919050565b7f4552433732313a2061646472657373207a65726f206973206e6f74206120766160008201527f6c6964206f776e65720000000000000000000000000000000000000000000000602082015250565b6000612c9960298361242f565b9150612ca482612c3d565b604082019050919050565b60006020820190508181036000830152612cc881612c8c565b9050919050565b7f4e487b7100000000000000000000000000000000000000000000000000000000600052601160045260246000fd5b6000612d09826124d6565b9150612d14836124d6565b9250828201905080821115612d2c57612d2b612ccf565b5b92915050565b600081905092915050565b6000612d4882612424565b612d528185612d32565b9350612d62818560208601612440565b80840191505092915050565b6000612d7a8285612d3d565b9150612d868284612d3d565b91508190509392505050565b7f4f776e61626c653a206e6577206f776e657220697320746865207a65726f206160008201527f6464726573730000000000000000000000000000000000000000000000000000602082015250565b6000612dee60268361242f565b9150612df982612d92565b604082019050919050565b60006020820190508181036000830152612e1d81612de1565b9050919050565b7f4552433732313a207472616e736665722066726f6d20696e636f72726563742060008201527f6f776e6572000000000000000000000000000000000000000000000000000000602082015250565b6000612e8060258361242f565b9150612e8b82612e24565b604082019050919050565b60006020820190508181036000830152612eaf81612e73565b9050919050565b7f4552433732313a207472616e7366657220746f20746865207a65726f2061646460008201527f7265737300000000000000000000000000000000000000000000000000000000602082015250565b6000612f1260248361242f565b9150612f1d82612eb6565b604082019050919050565b60006020820190508181036000830152612f4181612f05565b9050919050565b7f4f776e61626c653a2063616c6c6572206973206e6f7420746865206f776e6572600082015250565b6000612f7e60208361242f565b9150612f8982612f48565b602082019050919050565b60006020820190508181036000830152612fad81612f71565b9050919050565b7f4552433732313a20617070726f766520746f2063616c6c657200000000000000600082015250565b6000612fea60198361242f565b9150612ff582612fb4565b602082019050919050565b6000602082019050818103600083015261301981612fdd565b9050919050565b7f4552433732313a207472616e7366657220746f206e6f6e20455243373231526560008201527f63656976657220696d706c656d656e7465720000000000000000000000000000602082015250565b600061307c60328361242f565b915061308782613020565b604082019050919050565b600060208201905081810360008301526130ab8161306f565b9050919050565b7f45524337323155524953746f726167653a2055524920736574206f66206e6f6e60008201527f6578697374656e7420746f6b656e000000000000000000000000000000000000602082015250565b600061310e602e8361242f565b9150613119826130b2565b604082019050919050565b6000602082019050818103600083015261313d81613101565b9050919050565b60008190508160005260206000209050919050565b60006020601f8301049050919050565b600082821b905092915050565b6000600883026131a67fffffffffffffffffffffffffffffffffffffffffffffffffffffffffffffffff82613169565b6131b08683613169565b95508019841693508086168417925050509392505050565b6000819050919050565b60006131ed6131e86131e3846124d6565b6131c8565b6124d6565b9050919050565b6000819050919050565b613207836131d2565b61321b613213826131f4565b848454613176565b825550505050565b600090565b613230613223565b61323b8184846131fe565b505050565b5b8181101561325f57613254600082613228565b600181019050613241565b5050565b601f8211156132a45761327581613144565b61327e84613159565b8101602085101561328d578190505b6132a161329985613159565b830182613240565b50505b505050565b600082821c905092915050565b60006132c7600019846008026132a9565b1980831691505092915050565b60006132e083836132b6565b9150826002028217905092915050565b6132f982612424565b67ffffffffffffffff81111561331257613311612758565b5b61331c8254612975565b613327828285613263565b600060209050601f83116001811461335a5760008415613348578287015190505b61335285826132d4565b8655506133ba565b601f19841661336886613144565b60005b828110156133905784890151825560018201915060208501945060208101905061336b565b868310156133ad57848901516133a9601f8916826132b6565b8355505b6001600288020188555050505b505050505050565b60006133cd826124d6565b91506133d8836124d6565b92508282039050818111156133f0576133ef612ccf565b5b92915050565b600081519050919050565b600082825260208201905092915050565b600061341d826133f6565b6134278185613401565b9350613437818560208601612440565b6134408161246a565b840191505092915050565b6000608082019050613460600083018761256b565b61346d602083018661256b565b61347a6040830185612681565b818103606083015261348c8184613412565b905095945050505050565b6000815190506134a681612395565b92915050565b6000602082840312156134c2576134c161235f565b5b60006134d084828501613497565b91505092915050565b7f4e487b7100000000000000000000000000000000000000000000000000000000600052601260045260246000fd5b7f4552433732313a206d696e7420746f20746865207a65726f2061646472657373600082015250565b600061353e60208361242f565b915061354982613508565b602082019050919050565b6000602082019050818103600083015261356d81613531565b9050919050565b7f4552433732313a20746f6b656e20616c7265616479206d696e74656400000000600082015250565b60006135aa601c8361242f565b91506135b582613574565b602082019050919050565b600060208201905081810360008301526135d98161359d565b905091905056fea2646970667358221220fad5b29ab9b1bcc25ad74bb81fc58a499883ea04489817b81fbe04452b8bf13e64736f6c63430008110033",
  "devdoc": {
    "kind": "dev",
    "methods": {
      "approve(address,uint256)": {
        "details": "See {IERC721-approve}."
      },
      "balanceOf(address)": {
        "details": "See {IERC721-balanceOf}."
      },
      "getApproved(uint256)": {
        "details": "See {IERC721-getApproved}."
      },
      "isApprovedForAll(address,address)": {
        "details": "See {IERC721-isApprovedForAll}."
      },
      "name()": {
        "details": "See {IERC721Metadata-name}."
      },
      "owner()": {
        "details": "Returns the address of the current owner."
      },
      "ownerOf(uint256)": {
        "details": "See {IERC721-ownerOf}."
      },
      "renounceOwnership()": {
        "details": "Leaves the contract without owner. It will not be possible to call `onlyOwner` functions anymore. Can only be called by the current owner. NOTE: Renouncing ownership will leave the contract without an owner, thereby removing any functionality that is only available to the owner."
      },
      "safeTransferFrom(address,address,uint256)": {
        "details": "See {IERC721-safeTransferFrom}."
      },
      "safeTransferFrom(address,address,uint256,bytes)": {
        "details": "See {IERC721-safeTransferFrom}."
      },
      "setApprovalForAll(address,bool)": {
        "details": "See {IERC721-setApprovalForAll}."
      },
      "supportsInterface(bytes4)": {
        "details": "See {IERC165-supportsInterface}."
      },
      "symbol()": {
        "details": "See {IERC721Metadata-symbol}."
      },
      "tokenURI(uint256)": {
        "details": "See {IERC721Metadata-tokenURI}."
      },
      "transferFrom(address,address,uint256)": {
        "details": "See {IERC721-transferFrom}."
      },
      "transferOwnership(address)": {
        "details": "Transfers ownership of the contract to a new account (`newOwner`). Can only be called by the current owner."
      }
    },
    "version": 1
  },
  "userdoc": {
    "kind": "user",
    "methods": {},
    "version": 1
  },
  "storageLayout": {
    "storage": [
      {
        "astId": 138,
        "contract": "contracts/Pudhina.sol:Pudhina",
        "label": "_name",
        "offset": 0,
        "slot": "0",
        "type": "t_string_storage"
      },
      {
        "astId": 140,
        "contract": "contracts/Pudhina.sol:Pudhina",
        "label": "_symbol",
        "offset": 0,
        "slot": "1",
        "type": "t_string_storage"
      },
      {
        "astId": 144,
        "contract": "contracts/Pudhina.sol:Pudhina",
        "label": "_owners",
        "offset": 0,
        "slot": "2",
        "type": "t_mapping(t_uint256,t_address)"
      },
      {
        "astId": 148,
        "contract": "contracts/Pudhina.sol:Pudhina",
        "label": "_balances",
        "offset": 0,
        "slot": "3",
        "type": "t_mapping(t_address,t_uint256)"
      },
      {
        "astId": 152,
        "contract": "contracts/Pudhina.sol:Pudhina",
        "label": "_tokenApprovals",
        "offset": 0,
        "slot": "4",
        "type": "t_mapping(t_uint256,t_address)"
      },
      {
        "astId": 158,
        "contract": "contracts/Pudhina.sol:Pudhina",
        "label": "_operatorApprovals",
        "offset": 0,
        "slot": "5",
        "type": "t_mapping(t_address,t_mapping(t_address,t_bool))"
      },
      {
        "astId": 1204,
        "contract": "contracts/Pudhina.sol:Pudhina",
        "label": "_tokenURIs",
        "offset": 0,
        "slot": "6",
        "type": "t_mapping(t_uint256,t_string_storage)"
      },
      {
        "astId": 7,
        "contract": "contracts/Pudhina.sol:Pudhina",
        "label": "_owner",
        "offset": 0,
        "slot": "7",
        "type": "t_address"
      },
      {
        "astId": 2791,
        "contract": "contracts/Pudhina.sol:Pudhina",
        "label": "_tokenId",
        "offset": 0,
        "slot": "8",
        "type": "t_uint256"
      },
      {
        "astId": 2793,
        "contract": "contracts/Pudhina.sol:Pudhina",
        "label": "__name",
        "offset": 0,
        "slot": "9",
        "type": "t_string_storage"
      },
      {
        "astId": 2795,
        "contract": "contracts/Pudhina.sol:Pudhina",
        "label": "__symbol",
        "offset": 0,
        "slot": "10",
        "type": "t_string_storage"
      },
      {
        "astId": 2797,
        "contract": "contracts/Pudhina.sol:Pudhina",
        "label": "_tokenURI",
        "offset": 0,
        "slot": "11",
        "type": "t_string_storage"
      },
      {
        "astId": 2800,
        "contract": "contracts/Pudhina.sol:Pudhina",
        "label": "_nftTokenURIs",
        "offset": 0,
        "slot": "12",
        "type": "t_array(t_string_storage)dyn_storage"
      },
      {
        "astId": 2802,
        "contract": "contracts/Pudhina.sol:Pudhina",
        "label": "_initialized",
        "offset": 0,
        "slot": "13",
        "type": "t_bool"
      }
    ],
    "types": {
      "t_address": {
        "encoding": "inplace",
        "label": "address",
        "numberOfBytes": "20"
      },
      "t_array(t_string_storage)dyn_storage": {
        "base": "t_string_storage",
        "encoding": "dynamic_array",
        "label": "string[]",
        "numberOfBytes": "32"
      },
      "t_bool": {
        "encoding": "inplace",
        "label": "bool",
        "numberOfBytes": "1"
      },
      "t_mapping(t_address,t_bool)": {
        "encoding": "mapping",
        "key": "t_address",
        "label": "mapping(address => bool)",
        "numberOfBytes": "32",
        "value": "t_bool"
      },
      "t_mapping(t_address,t_mapping(t_address,t_bool))": {
        "encoding": "mapping",
        "key": "t_address",
        "label": "mapping(address => mapping(address => bool))",
        "numberOfBytes": "32",
        "value": "t_mapping(t_address,t_bool)"
      },
      "t_mapping(t_address,t_uint256)": {
        "encoding": "mapping",
        "key": "t_address",
        "label": "mapping(address => uint256)",
        "numberOfBytes": "32",
        "value": "t_uint256"
      },
      "t_mapping(t_uint256,t_address)": {
        "encoding": "mapping",
        "key": "t_uint256",
        "label": "mapping(uint256 => address)",
        "numberOfBytes": "32",
        "value": "t_address"
      },
      "t_mapping(t_uint256,t_string_storage)": {
        "encoding": "mapping",
        "key": "t_uint256",
        "label": "mapping(uint256 => string)",
        "numberOfBytes": "32",
        "value": "t_string_storage"
      },
      "t_string_storage": {
        "encoding": "bytes",
        "label": "string",
        "numberOfBytes": "32"
      },
      "t_uint256": {
        "encoding": "inplace",
        "label": "uint256",
        "numberOfBytes": "32"
      }
    }
  }
}